:100000000C94B8000C94E0000C94E0000C94E00018
:100010000C94E0000C94E0000C94E0000C94E000E0
:100020000C94E0000C94E0000C94E0000C94E000D0
:100030000C94E0000C94E0000C94E0000C94E000C0
:100040000C94E7080C94E0000C94B5080C948F080D
:100050000C94E0000C94E0000C94E0000C94E000A0
:100060000C94E0000C94E00008000000BE922449CB
:10007000123EABAAAA2ABECDCCCC4C3E00000080DA
:10008000BEABAAAAAA3E00000000BF000000803F4D
:100090000000000000084178D3BB4387D1133D190D
:1000A0000E3CC3BD4282AD2B3E68EC8276BED98F3A
:1000B000E1A93E4C80EFFFBE01C4FF7F3F0000007E
:1000C000000007634236B79BD8A71A39685618AEA6
:1000D000BAAB558C1D3CB7CC5763BD6DEDFD753E7D
:1000E000F6177231BF000000803FCDCCCC3D0AD75F
:1000F000233C17B7D13877CC2B329595E6241FB126
:100100004F0A0000803FCDCCCC3D6F12833A95BFA3
:10011000D6337D1D9026B3CE010C00002041000097
:10012000C84200401C4620BCBE4CCA1B0E5AAEC57D
:100130009D7400000000250028002B000000000036
:10014000240027002A000404040404040404020216
:100150000202020203030303030301020408102046
:1001600040800102040810200102040810208C0ABB
:1001700011241FBECFEFD8E0DEBFCDBF12E0A0E05C
:10018000B1E0E0E9FDE102C005900D92AA3AB107A5
:10019000D9F723E0AAEAB2E001C01D92A435B20764
:1001A000E1F710E0C8EBD0E004C02197FE010E9407
:1001B000B70EC73BD107C9F70E9431090C94C60E90
:1001C0000C940000CF93DF9390E0FC01E65AFE4FC1
:1001D00024918A5B9E4FFC0184918823C1F090E0BA
:1001E000880F991FFC01E45CFE4FC591D491FC017E
:1001F000EE5CFE4FA591B4919FB7F8948881E22FF1
:10020000E0958E2388838C91E823EC939FBFDF9148
:10021000CF910895AF92BF92CF92DF92EF92FF926B
:100220000F931F93CF93DF936C017B018B01040F1E
:10023000151FEB015E01AE18BF08C017D10759F0BA
:100240006991D601ED91FC910190F081E02DC601FC
:100250000995892B79F7C501DF91CF911F910F91F6
:10026000FF90EF90DF90CF90BF90AF900895FC018A
:10027000538D448D252F30E0842F90E0821B930B0B
:10028000541710F0CF96089501970895FC01918DB1
:10029000828D981761F0A28DAE0FBF2FB11D5D96B4
:1002A0008C91928D9F5F9F73928F90E008958FEF56
:1002B0009FEF0895FC01918D828D981731F0828D0A
:1002C000E80FF11D858D90E008958FEF9FEF089561
:1002D000FC01918D228D892F90E0805C9F4F821BC5
:1002E00091098F739927089587EB92E00E94680126
:1002F00021E0892B09F420E0822F089580E090E02E
:10030000892B29F00E94740181110C94000008953A
:10031000FC01A48DA80FB92FB11DA35ABF4F2C917A
:10032000848D90E001968F739927848FA689B78971
:100330002C93A089B1898C91837080648C93938D68
:10034000848D981306C00288F389E02D80818F7D0B
:1003500080830895EF92FF920F931F93CF93DF93C3
:10036000EC0181E0888F9B8D8C8D98131AC0E889F1
:10037000F989808185FF15C09FB7F894EE89FF89C0
:100380006083E889F98980818370806480839FBF5E
:1003900081E090E0DF91CF911F910F91FF90EF905E
:1003A0000895F62E0B8D10E00F5F1F4F0F7311276E
:1003B000E02E8C8D8E110CC00FB607FCFACFE889A9
:1003C000F989808185FFF5CFCE010E948801F1CFA8
:1003D000EB8DEC0FFD2FF11DE35AFF4FF0829FB71D
:1003E000F8940B8FEA89FB8980818062CFCFCF930D
:1003F000DF93EC01888D8823B9F0AA89BB89E8894D
:10040000F9898C9185FD03C0808186FD0DC00FB6F2
:1004100007FCF7CF8C9185FFF2CF808185FFEDCF70
:10042000CE010E948801E9CFDF91CF9108958E30EF
:1004300008F08E508770806480937C0080917A00F1
:10044000806480937A0080917A0086FDFCCF809151
:1004500078009091790008953FB7F8948091B302A5
:100460009091B402A091B502B091B60226B5A89BB6
:1004700005C02F3F19F00196A11DB11D3FBFBA2F36
:10048000A92F982F8827BC01CD01620F711D811DF6
:10049000911D42E0660F771F881F991F4A95D1F77B
:1004A0000895CF93DF93EC0188819981DC01ED9170
:1004B000FC910190F081E02D09952A813B81820F0A
:1004C000931F9B838A83DF91CF910895CF93DF930E
:1004D000EC0188819981DC01ED91FC910280F3812E
:1004E000E02D09952A813B81820F931F9B838A838C
:1004F000DF91CF9108958F929F92AF92BF92CF924A
:10050000DF92EF92FF920F931F93CF93DF93CDB7BC
:10051000DEB766970FB6F894DEBF0FBECDBF6C0195
:100520008E01095E1F4F78018AE0882E912CA12C44
:10053000B12CCB01BA01A50194010E94950E942F14
:10054000852F605DF80162938F01A901692F782FD3
:10055000411551056105710561F7A7014E1B5F0B40
:10056000BF01C6010E94660266960FB6F894DEBF10
:100570000FBECDBFDF91CF911F910F91FF90EF90F4
:10058000DF90CF90BF90AF909F908F900895EF92A3
:10059000FF920F931F93CF93DF93EC017B0162E2F5
:1005A0000E9451028701F80161918F01662391F049
:1005B000E2E1F1E0F280FF2049F032968181681398
:1005C000F9CF6CE5CE010E9451026F2DCE010E9441
:1005D0005102E9CF62E2CE01DF91CF911F910F91DD
:1005E000FF90EF900C945102FC012581222339F0F9
:1005F000F8E02F0290011124820F931F089590E0DC
:1006000080E00895FC0101900020E9F73197AF01E7
:10061000481B590BBC0187EB92E00C940A018F92A6
:100620009F92AF92BF920F931F93CF93DF93CDB75B
:10063000DEB7A1970FB6F894DEBF0FBECDBF19A2EB
:10064000423008F44AE08E010F5D1F4F842E912C3A
:10065000B12CA12CA50194010E94950EE62FB901A1
:10066000CA01EA30F4F4E05DD801EE938D01232B4A
:10067000242B252B79F790E080E0109719F0CD011D
:100680000E940203A1960FB6F894DEBF0FBECDBF45
:10069000DF91CF911F910F91BF90AF909F908F905E
:1006A0000895E95CE1CFCF93DF930E940203EC0150
:1006B00083E291E00E9402038C0F9D1FDF91CF9196
:1006C0000895FB0101900020E9F73197AF01461B27
:1006D000570B0C9466022F923F924F925F926F924B
:1006E0007F928F929F92AF92BF92CF92DF92EF92C2
:1006F000FF920F931F93CF93DF93CDB7DEB76C9725
:100700000FB6F894DEBF0FBECDBF8C011B01DC011C
:1007100014968C9114978F77863009F474C278F40C
:100720008230B0F0843008F04CC212964D915C914A
:1007300013976D917C91C1010E94660226C28C3094
:1007400069F160F4883009F459C28A3009F43FC273
:1007500066E271E0C1010E946103E5C1803209F4E3
:10076000ECC18034A9F76BE5C1010E945102F80188
:10077000008111810115110509F4DAC1B101C80127
:100780000E946B03C8010E94F4028C01892B09F4BA
:10079000CFC16CE2C1010E945102ECCFF801C080D0
:1007A000D180E280F380A7019601C701B6010E94C3
:1007B000260B8111CDCF20E030E0A901C701B601A1
:1007C0000E94260B882379F0A7019601C701B60184
:1007D0000E94BA0A9B01AC01C701B6010E94260B18
:1007E000882309F4B5CF20E030E0A901C701B601A4
:1007F0000E94260B87FF08C06DE2C1010E945102D2
:10080000F7FAF094F7F8F09420E836E948E15BE471
:10081000C701B6010E94850C87FD81C074E1A72E37
:10082000B12C00E210E0188E1F8AF501E65EFE4F43
:100830002591359145915491C701B6010E94850CCF
:1008400087FD13C0F501E651FF4F25913591459184
:100850005491C701B6010E94DA0C6B017C012F890B
:10086000388D200F311F388F2F8B1595079534E069
:10087000A31AB1088CEFA8168FEFB806B1F655246D
:100880005A9420E030E0A901C701B6010E94850C0E
:1008900018160CF04BC02CEA35EC47E257E3C701C1
:1008A000B6010E94260B18160CF440C0A52DB4E02A
:1008B000AB02C0011124912C812CFC01EE5FFE4F94
:1008C0003F019C01265E3E4F59013FEF531671F1E7
:1008D000F301E80DF91D6591759185919491A7013A
:1008E00096010E94850C18169CF4F501E80DF91D7F
:1008F0002591359145915491C701B6010E94DA0CBA
:100900006B017C018F89988D801B910B988F8F8B49
:10091000159507955A9494E0891A9108D6CF00E26C
:1009200010E055E0552E188E1F8AABCFC701B601D7
:100930000E94A40B4B015C012B013C0106E080E40A
:1009400092E4AFE0B0E0898F9A8FAB8FBC8F102F0D
:1009500001509AE04916510461047104C8F0698D90
:100960007A8D8B8D9C8D2AE030E040E050E00E9433
:10097000950E298F3A8F4B8F5C8FC301B2012AE00D
:1009800030E040E050E00E94950E29013A01DFCFAF
:10099000C501B4010E94D30B9B01AC01C701B60194
:1009A0000E94B90A6B017C01698D7A8D8B8D9C8DBB
:1009B0000E94D30B9B01AC01C701B6010E94DA0C67
:1009C0002B013C010E94A40B6B017C010E94D30B04
:1009D0009B01AC01C301B2010E94B90A9B01AC01A9
:1009E0000E94BA0A0E94A40BC60ED71EE81EF91E6A
:1009F000898D9A8DAB8DBC8DC816D906EA06FB068B
:100A0000D8F09FEF891A990AA90AB90AAF89B88D57
:100A1000AB2B39F1BAE08B169104A104B10408F1B3
:100A2000EF89F88D3196F88FEF8BC12CD12C7601A0
:100A3000812C912C540183942AE0422E512C612C5C
:100A4000712CC701B601A30192010E94950E672B7C
:100A5000682B692B51F4111644F469017A01115085
:100A6000F0CFC12CD12C7601E7CFB501A401C10193
:100A70000E947B02112371F14E01F1E18F0E911C56
:100A8000012F54019AE0492E512C612C712C0150F8
:100A900068F0C701B601A30192010E94950E605D46
:100AA000D4016E934D0169017A01F1CF812F90E05D
:100AB000BC0160957095F501E81BF90B31978EE24A
:100AC000808344275527461B570B6A0D7B1DC101A8
:100AD0000E946602EF89F88DEF2B29F165E6C101CE
:100AE0000E9451020F89188D17FF07C06DE2C101E6
:100AF0000E945102119501951109FE0177969F01FF
:100B00008AE0E82EF12CC801B7010E94810E805DB9
:100B100082938B01672BB9F7A9014E1B5F0BBF01B5
:100B2000C1010E946602D10112968D919C9130C044
:100B30006DE5C1010E945102F6CF6BE7C1010E9431
:100B40005102F8010081118101151105D1F0D80180
:100B500016966D917C91C1010E94C7026AE3C101A2
:100B60000E945102B101C8010E946B03C8010E949A
:100B7000F4028C01892B29F06CE2C1010E94510220
:100B8000E3CF6DE7C1010E945102F101828193819F
:100B90006C960FB6F894DEBF0FBECDBFDF91CF913C
:100BA0001F910F91FF90EF90DF90CF90BF90AF908B
:100BB0009F908F907F906F905F904F903F902F907D
:100BC00008956D917C91C1010E94C702DECFCD9046
:100BD000DD90ED90FC90B701A601F7FE0BC06DE231
:100BE000C1010E94510244275527BA014C195D09E1
:100BF0006E097F09C1010E947B02C7CF4D915D91B3
:100C00006D917C91F7CF8C916BE271E0811102C004
:100C100060E371E0C1010E946103B7CF4F925F9220
:100C20006F927F928F929F92AF92BF92CF92DF92FC
:100C3000EF92FF920F931F93CF936B017C01742E61
:100C4000AC019B010E94970D882399F086E391E007
:100C5000CF911F910F91FF90EF90DF90CF90BF90B9
:100C6000AF909F908F907F906F905F904F900C947B
:100C7000020346015701E894B7F82FEF3FEF4FE723
:100C80005FE7C501B4010E94970D81110DC02FEFE0
:100C90003FEF4FE75FE7C501B4010E94260B18162E
:100CA0001CF48AE391E0D4CF2FEF3FEF4FE75FE4EE
:100CB000C701B6010E94850C18161CF48EE391E062
:100CC000C7CF2FEF3FEF4FE75FECC701B6010E94A0
:100CD000260B87FDF3CF20E030E0A901C701B60164
:100CE0000E94260B10E000E087FF0AC06DE287EB50
:100CF00092E00E94AA018C01F7FAF094F7F8F094C0
:100D0000C0E060E070E080E09FE37C1641F020E00E
:100D100030E040E251E40E942B0BCF5FF6CFA701F9
:100D200096010E94BA0A2B013C010E94A40B4B01C0
:100D30005C014AE00E940F037C01E00EF11ECC230F
:100D4000C1F1C501B4010E94D30B9B01AC01C301E9
:100D5000B2010E94B90A4B015C016EE287EB92E09E
:100D60000E94AA01E80EF91EC15018F120E030E0FF
:100D700040E251E4C501B4010E94DA0C2B013C01B0
:100D80000E94A40B4B01B12CA12C4AE0C501B40177
:100D90000E940F03E80EF91EC501B4010E94D30B97
:100DA0009B01AC01C301B2010E94B90A4B015C0175
:100DB000DBCFC701CF911F910F91FF90EF90DF9094
:100DC000CF90BF90AF909F908F907F906F905F90EB
:100DD0004F900895CF92DF92EF92FF920F931F935F
:100DE000CF93DF93FC018481982F9F7739F480782B
:100DF000806284831182108213821282848185FD35
:100E00000CC0D0E0C0E0CE01DF91CF911F910F91D7
:100E1000FF90EF90DF90CF9008956115710589F3F1
:100E20007A016B018F01C081D1812097C1F16E8160
:100E30007F816C157D0539F36115710529F0C601B7
:100E40000E94BD0E892BF9F2CE010E94F402EC0142
:100E5000ECCFE9012897F701D583C483209789F265
:100E6000D8011296ED91FC911397309791F0CE0135
:100E70008E1B9F0B23E0959587952A95E1F7858337
:100E80001396DC93CE9312971D821C82DF82CE8252
:100E9000BACFF801D183C083D383C283F5CFD70102
:100EA00014962D913C91159712968D919C910896D0
:100EB0002817390770F681E0D70118968C93A3CFD5
:100EC0008F929F92AF92BF92CF92DF92EF92FF925A
:100ED0000E941702BC01990F880B990B0E94D50B39
:100EE0009B01AC0160E070EC8FE794E40E942B0B57
:100EF00020E030E040E85FE30E94B90A20E030E4FF
:100F00004CE156E40E94DA0C0E94920C6B017C01C9
:100F10002CE63FEC48E554E30E94DA0CA701960169
:100F20000E94DA0CA70196010E94DA0C4B015C01C9
:100F300026ED34E649E759E3C701B6010E94DA0C11
:100F40002BEC38E444E85AE30E94BA0A9B01AC0156
:100F5000C501B4010E94BA0A9B01AC0160E070E0D7
:100F600080E89FE30E942B0B23E333E948E853E436
:100F70000E94B90AFF90EF90DF90CF90BF90AF90A2
:100F80009F908F900895CF92DF92EF92FF920E94F0
:100F90001702BC01990F880B990B0E94D50B9B017E
:100FA000AC0160E070EC8FE794E40E942B0B20E032
:100FB00030E040E85FE30E94B90A20E030E44CE111
:100FC00056E40E94DA0C9B01AC0160E079ED88EFF9
:100FD00097E40E942B0B2EE336E245E95FE30E9483
:100FE000470D6B017C01C092AA02D092AB02E09245
:100FF000AC02F092AD0220E030E048E453E40E94FD
:10100000260B87FF19C082E491E00E94530380E51C
:1010100091E00E9402038FE591E00E9453036091EA
:10102000AA027091AB028091AC029091AD02FF9048
:10103000EF90DF90CF90089520E030E048E453E453
:10104000C701B6010E94850C1816ACF420E030E010
:1010500048EC53E4C701B6010E94260B87FF0BC082
:1010600086E791E00E94530380E591E00E9402032D
:1010700087E891E0D2CF20E030E048EC53E4C701AC
:10108000B6010E94850C1816ACF420E030E046E171
:1010900054E4C701B6010E94260B87FF0BC08BEA00
:1010A00091E00E94530380E591E00E94020388EBE7
:1010B00091E0B3CF20E030E046E154E4C701B6014F
:1010C0000E94850C1816ACF420E030E048E454E4AB
:1010D000C701B6010E94260B87FF0BC08BEE91E083
:1010E0000E94530380E591E00E9402038EEF91E09D
:1010F00094CF20E030E048E454E4C701B6010E94F8
:10110000850C18160CF08BCF80E492E00E945303FC
:1011100080E591E00E94020380E592E07ECF1F927D
:101120000F920FB60F9211242F933F934F935F931B
:101130006F937F938F939F93AF93BF93EF93FF939F
:1011400087EB92E00E948801FF91EF91BF91AF91F0
:101150009F918F917F916F915F914F913F912F91CF
:101160000F900FBE0F901F9018951F920F920FB601
:101170000F9211242F938F939F93EF93FF93E091FE
:10118000C702F091C8028081E091CD02F091CE02B9
:1011900082FD1BC090818091D0028F5F8F73209160
:1011A000D102821741F0E091D002F0E0E954FD4F06
:1011B000958F8093D002FF91EF919F918F912F9106
:1011C0000F900FBE0F901F9018958081F4CF1F9243
:1011D0000F920FB60F9211242F933F938F939F93EB
:1011E000AF93BF938091AF029091B002A091B102F2
:1011F000B091B2023091AE0223E0230F2D3758F5A3
:101200000196A11DB11D2093AE028093AF02909371
:10121000B002A093B102B093B2028091B302909158
:10122000B402A091B502B091B6020196A11DB11D04
:101230008093B3029093B402A093B502B093B60228
:10124000BF91AF919F918F913F912F910F900FBEC2
:101250000F901F90189526E8230F0296A11DB11D2F
:10126000D2CFCF93DF93CDB7DEB7CC5DD1090FB628
:10127000F894DEBF0FBECDBF789484B5826084BD84
:1012800084B5816084BD85B5826085BD85B581608A
:1012900085BD80916E00816080936E001092810008
:1012A00080918100826080938100809181008160C3
:1012B0008093810080918000816080938000809184
:1012C000B10084608093B1008091B0008160809310
:1012D000B00080917A00846080937A0080917A00D7
:1012E000826080937A0080917A00816080937A0096
:1012F00080917A00806880937A001092C100E0911A
:10130000C702F091C80282E08083E091C302F091AD
:10131000C4021082E091C502F091C60280E1808390
:101320001092CF02E091CB02F091CC0286E0808354
:10133000E091C902F091CA02808180618083E091CE
:10134000C902F091CA02808188608083E091C9025D
:10135000F091CA02808180688083E091C902F09197
:10136000CA0280818F7D80838EE00E94E20083E14B
:101370000E94E2006E012FE0C20ED11C8E010952C4
:101380001F4F90E0292E90E0392E81E992E00E94D3
:1013900053038EE090E00E9460074B015C0181E9FD
:1013A00092E00E94530383E792E00E94020342E02E
:1013B000C501B4010E940E0681E892E00E94530329
:1013C00083E190E00E94C3074B015C0184E892E056
:1013D0000E94020342E0C501B4010E940E0683E2AE
:1013E00091E00E94020381E992E00E9453030E946F
:1013F0002C022B013C0180ED882E87E0982EA12C39
:10140000B12C0E942C026419750986099709683E5F
:10141000734081059105A8F381E0881A9108A1081D
:10142000B10898EE490E93E0591E611C711C81149D
:101430009104A104B10429F7DA82C982DC82CB824B
:101440001E830D8318870F8319868E8580788E877B
:1014500083E190E00E94C3072B013C018EE090E005
:101460000E9460074B015C01AE014F5F5F4F63E973
:1014700072E0CE010A960E94EA067C01009791F084
:10148000FC01848180788A608483C301B2010E9458
:101490009D0B072E000C880B990BF701608371835D
:1014A00082839383AE014F5F5F4F6FE972E0CE019D
:1014B0000A960E94EA067C01009791F0FC01848163
:1014C00080788A608483C501B4010E949D0B072E39
:1014D000000C880B990BF7016083718382839383DF
:1014E00087EB92E0F8019183808313821282B80126
:1014F000CE010A960E946B0383E291E00E940203F0
:101500002114310409F441CF0E947401882309F4A5
:101510003CCF0E94000039CFE7EBF2E01382128249
:1015200088EE93E0A0E0B0E084839583A683B78340
:1015300084E091E09183808385EC90E095878487B7
:1015400084EC90E09787868780EC90E0918B808B8D
:1015500081EC90E0938B828B82EC90E0958B848B76
:1015600086EC90E0978B868B118E128E138E148EE4
:1015700008955058BB27AA270E94D10A0C944B0CFF
:101580000E943D0C38F00E94440C20F039F49F3F3B
:1015900019F426F40C943A0C0EF4E095E7FB0C9445
:1015A000340CE92F0E945C0C58F3BA1762077307DA
:1015B0008407950720F079F4A6F50C947E0C0EF4C0
:1015C000E0950B2EBA2FA02D0B01B90190010C0153
:1015D000CA01A0011124FF27591B99F0593F50F46B
:1015E000503E68F11A16F040A22F232F342F4427C3
:1015F000585FF3CF469537952795A795F0405395BB
:10160000C9F77EF41F16BA0B620B730B840BBAF08A
:101610009150A1F0FF0FBB1F661F771F881FC2F7F5
:101620000EC0BA0F621F731F841F48F48795779509
:101630006795B795F7959E3F08F0B0CF9395880FC3
:1016400008F09927EE0F9795879508950E94100C42
:1016500008F481E008950E943F0B0C944B0C0E940B
:10166000440C58F00E943D0C40F029F45F3F29F0F3
:101670000C94340C51110C947F0C0C943A0C0E9475
:101680005C0C68F39923B1F3552391F3951B550B2B
:10169000BB27AA2762177307840738F09F5F5F4F45
:1016A000220F331F441FAA1FA9F335D00E2E3AF084
:1016B000E0E832D091505040E695001CCAF72BD09C
:1016C000FE2F29D0660F771F881FBB1F26173707ED
:1016D0004807AB07B0E809F0BB0B802DBF01FF271F
:1016E00093585F4F3AF09E3F510578F00C94340CBC
:1016F0000C947F0C5F3FE4F3983ED4F38695779586
:101700006795B795F7959F5FC9F7880F911D9695D7
:10171000879597F90895E1E0660F771F881FBB1F33
:10172000621773078407BA0720F0621B730B840BE0
:10173000BA0BEE1F88F7E09508950E94A40B6894F9
:10174000B1110C947F0C08950E94640C88F09F578F
:1017500098F0B92F9927B751B0F0E1F0660F771FD5
:10176000881F991F1AF0BA95C9F714C0B13091F0CB
:101770000E947E0CB1E008950C947E0C672F782FA8
:101780008827B85F39F0B93FCCF386957795679590
:10179000B395D9F73EF490958095709561957F4FFC
:1017A0008F4F9F4F0895E89409C097FB3EF49095A2
:1017B0008095709561957F4F8F4F9F4F9923A9F02A
:1017C000F92F96E9BB279395F695879577956795B9
:1017D000B795F111F8CFFAF4BB0F11F460FF1BC0FD
:1017E0006F5F7F4F8F4F9F4F16C0882311F096E990
:1017F00011C0772321F09EE8872F762F05C066233E
:1018000071F096E8862F70E060E02AF09A95660FF6
:10181000771F881FDAF7880F9695879597F90895AF
:10182000990F0008550FAA0BE0E8FEEF16161706F1
:10183000E807F907C0F012161306E407F50798F059
:10184000621B730B840B950B39F40A2661F0232B72
:10185000242B252B21F408950A2609F4A140A695EE
:101860008FEF811D811D089597F99F6780E870E0D3
:1018700060E008959FEF80EC089500240A94161606
:10188000170618060906089500240A94121613066E
:10189000140605060895092E0394000C11F48823FC
:1018A00052F0BB0F40F4BF2B11F460FF04C06F5F18
:1018B0007F4F8F4F9F4F089557FD9058440F551FEE
:1018C00059F05F3F71F04795880F97FB991F61F0C2
:1018D0009F3F79F087950895121613061406551F39
:1018E000F2CF4695F1DF08C0161617061806991FA5
:1018F000F1CF86957105610508940895E894BB279A
:1019000066277727CB0197F908950E94100C08F4F9
:101910008FEF089516F00C94D60D0C943A0C689441
:101920000C94340C0E94640CA8F39923C1F3AEF319
:10193000DF93CF931F930F93FF92C92FDD27882347
:101940002AF02197660F771F881FDAF720E030E032
:1019500040E85FEB9FE3883920F0803E38F0219625
:101960008F770E94BA0AE8E6F0E004C00E94BA0A43
:10197000E5E9F0E00E94E40D8B01BE01EC01FB2ED5
:101980006F5771097595771F880B990B0E94D50BBE
:1019900028E132E741E35FE30E94ED0CAF2D9801AF
:1019A000AE01FF900F911F91CF91DF910E94D10A5C
:1019B0000C944B0C0E94ED0C0C944B0C0E943D0CB3
:1019C00038F00E94440C20F0952311F00C94340C54
:1019D0000C943A0C11240C947F0C0E945C0C70F354
:1019E000959FC1F3950F50E0551F629FF001729FC4
:1019F000BB27F00DB11D639FAA27F00DB11DAA1FD3
:101A0000649F6627B00DA11D661F829F2227B00D1F
:101A1000A11D621F739FB00DA11D621F839FA00DAA
:101A2000611D221F749F3327A00D611D231F849FFA
:101A3000600D211D822F762F6A2F11249F57504051
:101A40009AF0F1F088234AF0EE0FFF1FBB1F661FCC
:101A5000771F881F91505040A9F79E3F510580F095
:101A60000C94340C0C947F0C5F3FE4F3983ED4F359
:101A7000869577956795B795F795E7959F5FC1F739
:101A8000FE2B880F911D9695879597F90895FA0179
:101A9000EE0FFF1F309621053105A1F1611571058B
:101AA00061F48038BFE39B0749F168949038810561
:101AB00061F08038BFEF9B0741F099234AF5FF3F63
:101AC000E1053105210519F1E8940894E795D9015C
:101AD000AA2329F4AB2FBE2FF85FD0F310C0FF5F0D
:101AE00070F4A695E0F7F73950F019F0FF3A38F4A2
:101AF0009F779F930DD00F9007FC9058089546F064
:101B00000C943A0C60E070E080E89FE308954FE7A2
:101B10009F775F934F933F932F930E94920C2F9147
:101B20003F914F915F910E94DA0C0C94A40D0E949A
:101B3000100C880B990B089529F416F00C94340CB2
:101B40000C947E0C0C943A0C0E94640CA8F396380A
:101B5000A0F707F80F92E8942BE33AEA48EB5FE727
:101B60000E94F00C0F920F920F924DB75EB70F923A
:101B70000E944D0EE2ECF0E00E94E40D4F915F9167
:101B8000EF91FF91E595EE1FFF1F49F0FE57E068CA
:101B90004427EE0F441FFA95E1F74195550B0E943B
:101BA000170E0F9007FE0C940B0E08959F3F31F017
:101BB000915020F4879577956795B795880F911D7B
:101BC0009695879597F90895DF93CF931F930F9379
:101BD000FF92EF92DF927B018C01689406C0DA2EAF
:101BE000EF010E94ED0CFE01E894A591259135913D
:101BF00045915591A6F3EF010E94D10AFE0197018C
:101C0000A801DA9469F7DF90EF90FF900F911F9190
:101C1000CF91DF9108959B01AC0160E070E080E816
:101C20009FE30C942B0B0C94340C0C94D60D0E9457
:101C3000640CD8F39923C9F3940F511DA3F3915069
:101C4000504094F059F0882332F0660F771F881FB8
:101C500091505040C1F79E3F51052CF7880F911DC0
:101C60009695879597F908955F3FACF0983E9CF064
:101C7000BB27869577956795B79508F4B1609395DE
:101C8000C1F7BB0F58F711F460FFE8CF6F5F7F4FCC
:101C90008F4F9F4FE3CF0C947F0CFA01DC01AA0F0A
:101CA000BB1F9B01AC01BF5728F4222733274427D1
:101CB000507820C0B75190F4AB2F0024469537954B
:101CC0002795011CA395D2F3002071F0220F331F3A
:101CD000441FB395DAF30ED00C94B90A6130710544
:101CE000A0E88A07B94630F49B01AC016627772744
:101CF00088279078309621F0208331834283538364
:101D00000895AA1BBB1B51E107C0AA1FBB1FA61742
:101D1000B70710F0A61BB70B881F991F5A95A9F794
:101D200080959095BC01CD010895A1E21A2EAA1BC1
:101D3000BB1BFD010DC0AA1FBB1FEE1FFF1FA2177B
:101D4000B307E407F50720F0A21BB30BE40BF50B78
:101D5000661F771F881F991F1A9469F76095709501
:101D6000809590959B01AC01BD01CF010895EE0FC8
:101D7000FF1F0590F491E02D0994FB01DC018D918A
:101D8000019080190110D9F3990B0895F894FFCFB1
:101D900000000000AA010A013701F70168014601AD
:101DA0005A012F2F22225C5C6208660C6E0A720DAB
:101DB0007409000D0A006E756C6C00747275650014
:101DC00066616C7365006E616E00696E66006F76A9
:101DD0006600496E646963653A20467261636F000C
:101DE0005265636F6D656E646163616F3A20005088
:101DF00061737365206F2070726F7465746F7220E9
:101E0000736F6C617200496E646963653A204D6F4F
:101E100064657261646F005061737365206F207038
:101E2000726F7465746F7220736F6C6172206520BD
:101E300073652070726F74656A6100496E646963CE
:101E4000653A20416C746F005061737365206F2098
:101E500070726F7465746F7220736F6C617220633F
:101E60006F6D206661746F7220616C746F206520E5
:101E700073652070726F74656A6100496E6469638E
:101E8000653A204D7569746F20416C746F00506124
:101E9000737365206F2070726F7465746F72207336
:101EA0006F6C617220636F6D206661746F72206168
:101EB0006C746F2C2070726F74656A61206F206380
:101EC0006F72706F2065206F73206F6C686F730086
:101ED000496E646963653A2045787472656D6F0078
:101EE000536520706F73736976656C206E616F2027
:101EF0007365206578706F6E686520616F20536F21
:101F00006C2E0054656D70657261747572613A2053
:101F1000002043004578706F736963616F205556E8
:101F20003A20006578706F736963616F555600548D
:0A1F3000656D704772617573000063
:00000001FF
